{
  "valid": [
    {
      "description": "Standard transaction (1:1)",
      "id": "ed16cef815497ce650be77b4a476787f2293565483c7b9c3fb403d0694c8af4f",
      "hash": "4fafc894063d40fbc3b9c783545693227f7876a4b477be50e67c4915f8ce16ed",
      "hex": "010000000001f1fefefefefefefefefefefefefefefefefefefefefefefefefefefefefefefe000000006b4830450221008732a460737d956fd94d49a31890b2908f7ed7025a9c1d0f25e43290f1841716022004fa7d608a291d44ebbbebbadaac18f943031e7de39ef3bf9920998c43e60c0401210279be667ef9dcbbac55a06295ce870b07029bfcdb2dce28d959f2815b16f81798ffffffff0101e44bd3955e62587468668f367b4702cdcc480454aeedc65c6a3d018e4e61ae3d0100000000000186a0001976a914c42e7ef92fdb603af844d064faad95db9bcdfd3d88ac00000000",
      "raw": {
        "version": 1,
        "ins": [
          {
            "hash": "fefefefefefefefefefefefefefefefefefefefefefefefefefefefefefefef1",
            "index": 0,
            "script": "30450221008732a460737d956fd94d49a31890b2908f7ed7025a9c1d0f25e43290f1841716022004fa7d608a291d44ebbbebbadaac18f943031e7de39ef3bf9920998c43e60c0401 0279be667ef9dcbbac55a06295ce870b07029bfcdb2dce28d959f2815b16f81798"
          }
        ],
        "outs": [
          {
            "nonce": "",
            "amount": 100000,
            "script": "OP_DUP OP_HASH160 c42e7ef92fdb603af844d064faad95db9bcdfd3d OP_EQUALVERIFY OP_CHECKSIG",
            "asset": "3dae614e8e013d6a5cc6edae540448cccd02477b368f66687458625e95d34be4"
          }
        ],
        "locktime": 0
      },
      "coinbase": false,
      "virtualSize": 228,
      "weight": 912
    },
    {
      "description": "Standard transaction (2:2)",
      "id": "705918b21434dfb738ce4e261942e96dc22f4868d6973ecb2c6191ef467c2e5d",
      "hash": "5d2e7c46ef91612ccb3e97d668482fc26de94219264ece38b7df3414b2185970",
      "hex": "010000000002f1fefefefefefefefefefefefefefefefefefefefefefefefefefefefefefefe000000006b483045022100e661badd8d2cf1af27eb3b82e61b5d3f5d5512084591796ae31487f5b82df948022006df3c2a2cac79f68e4b179f4bbb8185a0bb3c4a2486d4405c59b2ba07a74c2101210279be667ef9dcbbac55a06295ce870b07029bfcdb2dce28d959f2815b16f81798fffffffff2fefefefefefefefefefefefefefefefefefefefefefefefefefefefefefefe0100000083483045022100be54a46a44fb7e6bf4ebf348061d0dace7ddcbb92d4147ce181cf4789c7061f0022068ccab2a89a47fc29bb5074bca99ae846ab446eecf3c3aaeb238a13838783c78012102c6047f9441ed7d6d3045406e95c07cd85c778e4b8cef3ca7abac09b95c709ee517a9147ccb85f0ab2d599bc17246c98babd5a20b1cdc7687000000800201e44bd3955e62587468668f367b4702cdcc480454aeedc65c6a3d018e4e61ae3d01000000000000c350001976a914c42e7ef92fdb603af844d064faad95db9bcdfd3d88ac01e44bd3955e62587468668f367b4702cdcc480454aeedc65c6a3d018e4e61ae3d0100000000000249f00017a9147ccb85f0ab2d599bc17246c98babd5a20b1cdc768700000000",
      "raw": {
        "version": 1,
        "ins": [
          {
            "hash": "fefefefefefefefefefefefefefefefefefefefefefefefefefefefefefefef1",
            "index": 0,
            "script": "3045022100e661badd8d2cf1af27eb3b82e61b5d3f5d5512084591796ae31487f5b82df948022006df3c2a2cac79f68e4b179f4bbb8185a0bb3c4a2486d4405c59b2ba07a74c2101 0279be667ef9dcbbac55a06295ce870b07029bfcdb2dce28d959f2815b16f81798",
            "sequence": 4294967295
          },
          {
            "hash": "fefefefefefefefefefefefefefefefefefefefefefefefefefefefefefefef2",
            "index": 1,
            "script": "3045022100be54a46a44fb7e6bf4ebf348061d0dace7ddcbb92d4147ce181cf4789c7061f0022068ccab2a89a47fc29bb5074bca99ae846ab446eecf3c3aaeb238a13838783c7801 02c6047f9441ed7d6d3045406e95c07cd85c778e4b8cef3ca7abac09b95c709ee5 a9147ccb85f0ab2d599bc17246c98babd5a20b1cdc7687",
            "sequence": 2147483648
          }
        ],
        "outs": [
          {
            "nonce": "",
            "amount": 50000,
            "script": "OP_DUP OP_HASH160 c42e7ef92fdb603af844d064faad95db9bcdfd3d OP_EQUALVERIFY OP_CHECKSIG",
            "asset": "3dae614e8e013d6a5cc6edae540448cccd02477b368f66687458625e95d34be4"
          },
          {
            "nonce": "",
            "amount": 150000,
            "script": "OP_HASH160 7ccb85f0ab2d599bc17246c98babd5a20b1cdc76 OP_EQUAL",
            "asset": "3dae614e8e013d6a5cc6edae540448cccd02477b368f66687458625e95d34be4"
          }
        ],
        "locktime": 0
      },
      "coinbase": false,
      "virtualSize": 467,
      "weight": 1868
    },
    {
      "description": "Standard transaction (14:2)",
      "id": "1a7fb5098a7ea5ce45e8849804ddc8ffc0a6778e9e4ccbd47a0945b1499c7e31",
      "hash": "317e9c49b145097ad4cb4c9e8e77a6c0ffc8dd049884e845cea57e8a09b57f1a",
      "hex": "01000000000ee7b73e229790c1e79a02f0c871813b3cf26a4156c5b8d942e88b38fe8d3f43a0000000008c493046022100fd3d8fef44fb0962ba3f07bee1d4cafb84e60e38e6c7d9274504b3638a8d2f520221009fce009044e615b6883d4bf62e04c48f9fe236e19d644b082b2f0ae5c98e045c014104aa592c859fd00ed2a02609aad3a1bf72e0b42de67713e632c70a33cc488c15598a0fb419370a54d1c275b44380e8777fc01b6dc3cd43a416c6bab0e30dc1e19fffffffff7bfc005f3880a606027c7cd7dd02a0f6a6572eeb84a91aa158311be13695a7ea010000008b483045022100e2e61c40f26e2510b76dc72ea2f568ec514fce185c719e18bca9caaef2b20e9e02207f1100fc79eb0584e970c7f18fb226f178951d481767b4092d50d13c50ccba8b014104aa592c859fd00ed2a02609aad3a1bf72e0b42de67713e632c70a33cc488c15598a0fb419370a54d1c275b44380e8777fc01b6dc3cd43a416c6bab0e30dc1e19fffffffff0e0f8e6bf951fbb84d7d8ef833a1cbf5bb046ea7251973ac6e7661c755386ee3010000008a473044022048f1611e403710f248f7caf479965a6a5f63cdfbd9a714fef4ec1b68331ade1d022074919e79376c363d4575b2fc21513d5949471703efebd4c5ca2885e810eb1fa4014104aa592c859fd00ed2a02609aad3a1bf72e0b42de67713e632c70a33cc488c15598a0fb419370a54d1c275b44380e8777fc01b6dc3cd43a416c6bab0e30dc1e19fffffffffe6f17f35bf9f0aa7a4242ab3e29edbdb74c5274bf263e53043dddb8045cb585b000000008b483045022100886c07cad489dfcf4b364af561835d5cf985f07adf8bd1d5bd6ddea82b0ce6b2022045bdcbcc2b5fc55191bb997039cf59ff70e8515c56b62f293a9add770ba26738014104aa592c859fd00ed2a02609aad3a1bf72e0b42de67713e632c70a33cc488c15598a0fb419370a54d1c275b44380e8777fc01b6dc3cd43a416c6bab0e30dc1e19fffffffffe6f17f35bf9f0aa7a4242ab3e29edbdb74c5274bf263e53043dddb8045cb585b010000008a4730440220535d49b819fdf294d27d82aff2865ed4e18580f0ca9796d793f611cb43a44f47022019584d5e300c415f642e37ba2a814a1e1106b4a9b91dc2a30fb57ceafe041181014104aa592c859fd00ed2a02609aad3a1bf72e0b42de67713e632c70a33cc488c15598a0fb419370a54d1c275b44380e8777fc01b6dc3cd43a416c6bab0e30dc1e19fffffffffd3051677216ea53baa2e6d7f6a75434ac338438c59f314801c8496d1e6d1bf6d010000008b483045022100bf612b0fa46f49e70ab318ca3458d1ed5f59727aa782f7fac5503f54d9b43a590220358d7ed0e3cee63a5a7e972d9fad41f825d95de2fd0c5560382468610848d489014104aa592c859fd00ed2a02609aad3a1bf72e0b42de67713e632c70a33cc488c15598a0fb419370a54d1c275b44380e8777fc01b6dc3cd43a416c6bab0e30dc1e19fffffffff1e751ccc4e7d973201e9174ec78ece050ef2fadd6a108f40f76a9fa314979c31010000008b483045022006e263d5f73e05c48a603e3bd236e8314e5420721d5e9020114b93e8c9220e1102210099d3dead22f4a792123347a238c87e67b55b28a94a0bb7793144cc7ad94a0168014104aa592c859fd00ed2a02609aad3a1bf72e0b42de67713e632c70a33cc488c15598a0fb419370a54d1c275b44380e8777fc01b6dc3cd43a416c6bab0e30dc1e19fffffffff25c4cf2c61743b3f4252d921d937cca942cf32e4f3fa4a544d0b26f014337084010000008a47304402207d6e87588be47bf2d97eaf427bdd992e9d6b306255711328aee38533366a88b50220623099595ae442cb77eaddb3f91753a4fc9df56fde69cfec584c7f97e05533c8014104aa592c859fd00ed2a02609aad3a1bf72e0b42de67713e632c70a33cc488c15598a0fb419370a54d1c275b44380e8777fc01b6dc3cd43a416c6bab0e30dc1e19fffffffffecd93c87eb43c48481e6694904305349bdea94b01104579fa9f02bff66c89663010000008a473044022020f59498aee0cf82cb113768ef3cb721000346d381ff439adb4d405f791252510220448de723aa59412266fabbc689ec25dc94b1688c27a614982047513a80173514014104aa592c859fd00ed2a02609aad3a1bf72e0b42de67713e632c70a33cc488c15598a0fb419370a54d1c275b44380e8777fc01b6dc3cd43a416c6bab0e30dc1e19fffffffffa1fdc0a79ff98d5b6154176e321c22f4f8450dbd950bd013ad31135f5604411e010000008b48304502210088167867f87327f9c0db0444267ff0b6a026eedd629d8f16fe44a34c18e706bf0220675c8baebf89930e2d6e4463adefc50922653af99375242e38f5ee677418738a014104aa592c859fd00ed2a02609aad3a1bf72e0b42de67713e632c70a33cc488c15598a0fb419370a54d1c275b44380e8777fc01b6dc3cd43a416c6bab0e30dc1e19fffffffffb89e8249c3573b58bf1ec7433185452dd57ab8e1daab01c3cc6ddc8b66ad3de8000000008b4830450220073d50ac5ec8388d5b3906921f9368c31ad078c8e1fb72f26d36b533f35ee327022100c398b23e6692e11dca8a1b64aae2ff70c6a781ed5ee99181b56a2f583a967cd4014104aa592c859fd00ed2a02609aad3a1bf72e0b42de67713e632c70a33cc488c15598a0fb419370a54d1c275b44380e8777fc01b6dc3cd43a416c6bab0e30dc1e19fffffffff45ee07e182084454dacfad1e61b04ffdf9c7b01003060a6c841a01f4fff8a5a0010000008b483045022100991d1bf60c41358f08b20e53718a24e05ac0608915df4f6305a5b47cb61e5da7022003f14fc1cc5b737e2c3279a4f9be1852b49dbb3d9d6cc4c8af6a666f600dced8014104aa592c859fd00ed2a02609aad3a1bf72e0b42de67713e632c70a33cc488c15598a0fb419370a54d1c275b44380e8777fc01b6dc3cd43a416c6bab0e30dc1e19fffffffff4cba12549f1d70f8e60aea8b546c8357f7c099e7c7d9d8691d6ee16e7dfa3170010000008c493046022100f14e2b0ef8a8e206db350413d204bc0a5cd779e556b1191c2d30b5ec023cde6f022100b90b2d2bf256c98a88f7c3a653b93cec7d25bb6a517db9087d11dbd189e8851c014104aa592c859fd00ed2a02609aad3a1bf72e0b42de67713e632c70a33cc488c15598a0fb419370a54d1c275b44380e8777fc01b6dc3cd43a416c6bab0e30dc1e19fffffffffa4b3aed39eb2a1dc6eae4609d9909724e211c153927c230d02bd33add3026959010000008b483045022100a8cebb4f1c58f5ba1af91cb8bd4a2ed4e684e9605f5a9dc8b432ed00922d289d0220251145d2d56f06d936fd0c51fa884b4a6a5fafd0c3318f72fb05a5c9aa372195014104aa592c859fd00ed2a02609aad3a1bf72e0b42de67713e632c70a33cc488c15598a0fb419370a54d1c275b44380e8777fc01b6dc3cd43a416c6bab0e30dc1e19fffffffff0201e44bd3955e62587468668f367b4702cdcc480454aeedc65c6a3d018e4e61ae3d01000000000323d540001976a914167c3e1f10cc3b691c73afbdb211e156e3e3f25c88ac01e44bd3955e62587468668f367b4702cdcc480454aeedc65c6a3d018e4e61ae3d0100000000002e4615001976a914290f7d617b75993e770e5606335fa0999a28d71388ac00000000",
      "raw": {
        "version": 1,
        "locktime": 0,
        "ins": [
          {
            "hash": "a0433f8dfe388be842d9b8c556416af23c3b8171c8f0029ae7c19097223eb7e7",
            "index": 0,
            "script": "3046022100fd3d8fef44fb0962ba3f07bee1d4cafb84e60e38e6c7d9274504b3638a8d2f520221009fce009044e615b6883d4bf62e04c48f9fe236e19d644b082b2f0ae5c98e045c01 04aa592c859fd00ed2a02609aad3a1bf72e0b42de67713e632c70a33cc488c15598a0fb419370a54d1c275b44380e8777fc01b6dc3cd43a416c6bab0e30dc1e19f",
            "sequence": null
          },
          {
            "hash": "eaa79536e11b3158a11aa984eb2e57a6f6a002ddd77c7c0206a680385f00fc7b",
            "index": 1,
            "script": "3045022100e2e61c40f26e2510b76dc72ea2f568ec514fce185c719e18bca9caaef2b20e9e02207f1100fc79eb0584e970c7f18fb226f178951d481767b4092d50d13c50ccba8b01 04aa592c859fd00ed2a02609aad3a1bf72e0b42de67713e632c70a33cc488c15598a0fb419370a54d1c275b44380e8777fc01b6dc3cd43a416c6bab0e30dc1e19f"
          },
          {
            "hash": "e36e3855c761766eac731925a76e04bbf5cba133f88e7d4db8fb51f96b8e0f0e",
            "index": 1,
            "script": "3044022048f1611e403710f248f7caf479965a6a5f63cdfbd9a714fef4ec1b68331ade1d022074919e79376c363d4575b2fc21513d5949471703efebd4c5ca2885e810eb1fa401 04aa592c859fd00ed2a02609aad3a1bf72e0b42de67713e632c70a33cc488c15598a0fb419370a54d1c275b44380e8777fc01b6dc3cd43a416c6bab0e30dc1e19f"
          },
          {
            "hash": "5b58cb4580dbdd4330e563f24b27c574dbdb9ee2b32a24a4a70a9fbf357ff1e6",
            "index": 0,
            "script": "3045022100886c07cad489dfcf4b364af561835d5cf985f07adf8bd1d5bd6ddea82b0ce6b2022045bdcbcc2b5fc55191bb997039cf59ff70e8515c56b62f293a9add770ba2673801 04aa592c859fd00ed2a02609aad3a1bf72e0b42de67713e632c70a33cc488c15598a0fb419370a54d1c275b44380e8777fc01b6dc3cd43a416c6bab0e30dc1e19f"
          },
          {
            "hash": "5b58cb4580dbdd4330e563f24b27c574dbdb9ee2b32a24a4a70a9fbf357ff1e6",
            "index": 1,
            "script": "30440220535d49b819fdf294d27d82aff2865ed4e18580f0ca9796d793f611cb43a44f47022019584d5e300c415f642e37ba2a814a1e1106b4a9b91dc2a30fb57ceafe04118101 04aa592c859fd00ed2a02609aad3a1bf72e0b42de67713e632c70a33cc488c15598a0fb419370a54d1c275b44380e8777fc01b6dc3cd43a416c6bab0e30dc1e19f"
          },
          {
            "hash": "6dbfd1e6d196841c8014f3598c4338c34a43756a7f6d2eaa3ba56e21771605d3",
            "index": 1,
            "script": "3045022100bf612b0fa46f49e70ab318ca3458d1ed5f59727aa782f7fac5503f54d9b43a590220358d7ed0e3cee63a5a7e972d9fad41f825d95de2fd0c5560382468610848d48901 04aa592c859fd00ed2a02609aad3a1bf72e0b42de67713e632c70a33cc488c15598a0fb419370a54d1c275b44380e8777fc01b6dc3cd43a416c6bab0e30dc1e19f"
          },
          {
            "hash": "319c9714a39f6af7408f106addfaf20e05ce8ec74e17e90132977d4ecc1c751e",
            "index": 1,
            "script": "3045022006e263d5f73e05c48a603e3bd236e8314e5420721d5e9020114b93e8c9220e1102210099d3dead22f4a792123347a238c87e67b55b28a94a0bb7793144cc7ad94a016801 04aa592c859fd00ed2a02609aad3a1bf72e0b42de67713e632c70a33cc488c15598a0fb419370a54d1c275b44380e8777fc01b6dc3cd43a416c6bab0e30dc1e19f"
          },
          {
            "hash": "84703314f0260b4d544afaf3e432cf42a9cc37d921d952423f3b74612ccfc425",
            "index": 1,
            "script": "304402207d6e87588be47bf2d97eaf427bdd992e9d6b306255711328aee38533366a88b50220623099595ae442cb77eaddb3f91753a4fc9df56fde69cfec584c7f97e05533c801 04aa592c859fd00ed2a02609aad3a1bf72e0b42de67713e632c70a33cc488c15598a0fb419370a54d1c275b44380e8777fc01b6dc3cd43a416c6bab0e30dc1e19f"
          },
          {
            "hash": "6396c866ff2bf0a99f570411b094eabd495330044969e68184c443eb873cd9ec",
            "index": 1,
            "script": "3044022020f59498aee0cf82cb113768ef3cb721000346d381ff439adb4d405f791252510220448de723aa59412266fabbc689ec25dc94b1688c27a614982047513a8017351401 04aa592c859fd00ed2a02609aad3a1bf72e0b42de67713e632c70a33cc488c15598a0fb419370a54d1c275b44380e8777fc01b6dc3cd43a416c6bab0e30dc1e19f"
          },
          {
            "hash": "1e4104565f1331ad13d00b95bd0d45f8f4221c326e1754615b8df99fa7c0fda1",
            "index": 1,
            "script": "304502210088167867f87327f9c0db0444267ff0b6a026eedd629d8f16fe44a34c18e706bf0220675c8baebf89930e2d6e4463adefc50922653af99375242e38f5ee677418738a01 04aa592c859fd00ed2a02609aad3a1bf72e0b42de67713e632c70a33cc488c15598a0fb419370a54d1c275b44380e8777fc01b6dc3cd43a416c6bab0e30dc1e19f"
          },
          {
            "hash": "e83dad668bdc6dccc301abdae1b87ad52d45853143c71ebf583b57c349829eb8",
            "index": 0,
            "script": "30450220073d50ac5ec8388d5b3906921f9368c31ad078c8e1fb72f26d36b533f35ee327022100c398b23e6692e11dca8a1b64aae2ff70c6a781ed5ee99181b56a2f583a967cd401 04aa592c859fd00ed2a02609aad3a1bf72e0b42de67713e632c70a33cc488c15598a0fb419370a54d1c275b44380e8777fc01b6dc3cd43a416c6bab0e30dc1e19f"
          },
          {
            "hash": "a0a5f8fff4011a846c0a060310b0c7f9fd4fb0611eadcfda54440882e107ee45",
            "index": 1,
            "script": "3045022100991d1bf60c41358f08b20e53718a24e05ac0608915df4f6305a5b47cb61e5da7022003f14fc1cc5b737e2c3279a4f9be1852b49dbb3d9d6cc4c8af6a666f600dced801 04aa592c859fd00ed2a02609aad3a1bf72e0b42de67713e632c70a33cc488c15598a0fb419370a54d1c275b44380e8777fc01b6dc3cd43a416c6bab0e30dc1e19f"
          },
          {
            "hash": "7031fa7d6ee16e1d69d8d9c7e799c0f757836c548bea0ae6f8701d9f5412ba4c",
            "index": 1,
            "script": "3046022100f14e2b0ef8a8e206db350413d204bc0a5cd779e556b1191c2d30b5ec023cde6f022100b90b2d2bf256c98a88f7c3a653b93cec7d25bb6a517db9087d11dbd189e8851c01 04aa592c859fd00ed2a02609aad3a1bf72e0b42de67713e632c70a33cc488c15598a0fb419370a54d1c275b44380e8777fc01b6dc3cd43a416c6bab0e30dc1e19f"
          },
          {
            "hash": "596902d3ad33bd020d237c9253c111e2249790d90946ae6edca1b29ed3aeb3a4",
            "index": 1,
            "script": "3045022100a8cebb4f1c58f5ba1af91cb8bd4a2ed4e684e9605f5a9dc8b432ed00922d289d0220251145d2d56f06d936fd0c51fa884b4a6a5fafd0c3318f72fb05a5c9aa37219501 04aa592c859fd00ed2a02609aad3a1bf72e0b42de67713e632c70a33cc488c15598a0fb419370a54d1c275b44380e8777fc01b6dc3cd43a416c6bab0e30dc1e19f"
          }
        ],
        "outs": [
          {
            "nonce": "",
            "amount": 52680000,
            "script": "OP_DUP OP_HASH160 167c3e1f10cc3b691c73afbdb211e156e3e3f25c OP_EQUALVERIFY OP_CHECKSIG",
            "asset": "3dae614e8e013d6a5cc6edae540448cccd02477b368f66687458625e95d34be4"
          },
          {
            "nonce": "",
            "amount": 3032597,
            "script": "OP_DUP OP_HASH160 290f7d617b75993e770e5606335fa0999a28d713 OP_EQUALVERIFY OP_CHECKSIG",
            "asset": "3dae614e8e013d6a5cc6edae540448cccd02477b368f66687458625e95d34be4"
          }
        ]
      },
      "coinbase": false,
      "virtualSize": 2667,
      "weight": 10668
    },
    {
      "description": "P2SH P2WKH",
      "id": "4c4419a815a143c1a54c62609c059c34f31afe0c0a21b0dab8c9048a8a3ae41f",
      "hash": "1fe43a8a8a04c9b8dab0210a0cfe1af3349c059c60624ca5c143a115a819444c",
      "hex": "020000000101a5c44e1434a1f9b90652ff5a7fe35ab4ed349db0d73d428b63585dc87178dabb00000000171600143e5913dd0fdf12a0d4dd68007a55d734ef938dc1fdffffff030125b251070e29ca19043cf33ccd7324e2ddab03ecc4ae0b5e77c4fc0e5cf6c95a010000000005f5e100001976a9140a5996dceab48274e3f915eb4db2c90ea26922ac88ac0125b251070e29ca19043cf33ccd7324e2ddab03ecc4ae0b5e77c4fc0e5cf6c95a010000000005f5cad00017a914963f9bef50bf71a46a0a674b6f16f6d8ae2f61a5870125b251070e29ca19043cf33ccd7324e2ddab03ecc4ae0b5e77c4fc0e5cf6c95a01000000000000163000007900000000000247304402202fc73aad6932e25b3cb2a7da3213189bcdb4dbacceb5687ff713751d85e66f570220232951e9e820b3cdabb5c827ef9499e98aa90cd9275ea223f6f40549a940e596012103cbc1315ebc3d91dde32682be3c763260004cf60840908e72a50f4e59dfe7175700000000000000",
      "whex": "020000000101a5c44e1434a1f9b90652ff5a7fe35ab4ed349db0d73d428b63585dc87178dabb00000000171600143e5913dd0fdf12a0d4dd68007a55d734ef938dc1fdffffff030125b251070e29ca19043cf33ccd7324e2ddab03ecc4ae0b5e77c4fc0e5cf6c95a010000000005f5e100001976a9140a5996dceab48274e3f915eb4db2c90ea26922ac88ac0125b251070e29ca19043cf33ccd7324e2ddab03ecc4ae0b5e77c4fc0e5cf6c95a010000000005f5cad00017a914963f9bef50bf71a46a0a674b6f16f6d8ae2f61a5870125b251070e29ca19043cf33ccd7324e2ddab03ecc4ae0b5e77c4fc0e5cf6c95a01000000000000163000007900000000000247304402202fc73aad6932e25b3cb2a7da3213189bcdb4dbacceb5687ff713751d85e66f570220232951e9e820b3cdabb5c827ef9499e98aa90cd9275ea223f6f40549a940e596012103cbc1315ebc3d91dde32682be3c763260004cf60840908e72a50f4e59dfe7175700000000000000",
      "raw": {
        "version": 2,
        "flag": 1,
        "ins": [
          {
            "hash": "bbda7871c85d58638b423dd7b09d34edb45ae37f5aff5206b9f9a134144ec4a5",
            "index": 0,
            "script": "00143e5913dd0fdf12a0d4dd68007a55d734ef938dc1",
            "sequence": 4294967293,
            "witness": [
              "304402202fc73aad6932e25b3cb2a7da3213189bcdb4dbacceb5687ff713751d85e66f570220232951e9e820b3cdabb5c827ef9499e98aa90cd9275ea223f6f40549a940e59601",
              "03cbc1315ebc3d91dde32682be3c763260004cf60840908e72a50f4e59dfe71757"
            ]
          }
        ],
        "outs": [
          {
            "asset": "5ac9f65c0efcc4775e0baec4ec03abdde22473cd3cf33c0419ca290e0751b225",
            "amount": 100000000,
            "nonce": "",
            "script": "OP_DUP OP_HASH160 0a5996dceab48274e3f915eb4db2c90ea26922ac OP_EQUALVERIFY OP_CHECKSIG"
          },
          {
            "asset": "5ac9f65c0efcc4775e0baec4ec03abdde22473cd3cf33c0419ca290e0751b225",
            "amount": 99994320,
            "nonce": "",
            "script": "OP_HASH160 963f9bef50bf71a46a0a674b6f16f6d8ae2f61a5 OP_EQUAL"
          },
          {
            "asset": "5ac9f65c0efcc4775e0baec4ec03abdde22473cd3cf33c0419ca290e0751b225",
            "amount": 5680,
            "nonce": "",
            "script": ""
          }
        ],
        "locktime": 121
      },
      "coinbase": false,
      "virtualSize": 284,
      "weight": 1136
    }
  ],
  "hashForSignature": [
    {
      "description": "Out of range inIndex",
      "txHex": "01000000000200000000000000000000000000000000000000000000000000000000000000000000000000ffffffff00000000000000000000000000000000000000000000000000000000000000000000000000ffffffff0101e44bd3955e62587468668f367b4702cdcc480454aeedc65c6a3d018e4e61ae3d0100000000000003e8000000000000",
      "inIndex": 2,
      "script": "OP_0",
      "type": 0,
      "hash": "0000000000000000000000000000000000000000000000000000000000000001"
    },
    {
      "description": "inIndex > nOutputs (SIGHASH_SINGLE)",
      "txHex": "01000000000200000000000000000000000000000000000000000000000000000000000000000000000000ffffffff00000000000000000000000000000000000000000000000000000000000000000000000000ffffffff0101e44bd3955e62587468668f367b4702cdcc480454aeedc65c6a3d018e4e61ae3d0100000000000003e8000000000000",
      "inIndex": 2,
      "script": "OP_0",
      "type": 3,
      "hash": "0000000000000000000000000000000000000000000000000000000000000001"
    },
    {
      "txHex": "01000000000200000000000000000000000000000000000000000000000000000000000000000000000000ffffffff00000000000000000000000000000000000000000000000000000000000000000000000000ffffffff0101e44bd3955e62587468668f367b4702cdcc480454aeedc65c6a3d018e4e61ae3d0100000000000003e8000000000000",
      "inIndex": 0,
      "script": "OP_0 OP_3",
      "type": 0,
      "hash": "8f2713d29adbc1668229b6f35a9452d19f0020c7f65366ca9cb72c4a212d353a"
    },
    {
      "txHex": "01000000000200000000000000000000000000000000000000000000000000000000000000000000000000ffffffff00000000000000000000000000000000000000000000000000000000000000000000000000ffffffff0101e44bd3955e62587468668f367b4702cdcc480454aeedc65c6a3d018e4e61ae3d0100000000000003e8000000000000",
      "inIndex": 0,
      "script": "OP_0 OP_CODESEPARATOR OP_3",
      "type": 0,
      "hash": "8f2713d29adbc1668229b6f35a9452d19f0020c7f65366ca9cb72c4a212d353a"
    },
    {
      "txHex": "01000000000200000000000000000000000000000000000000000000000000000000000000000000000000ffffffff00000000000000000000000000000000000000000000000000000000000000000000000000ffffffff0101e44bd3955e62587468668f367b4702cdcc480454aeedc65c6a3d018e4e61ae3d0100000000000003e8000000000000",
      "inIndex": 0,
      "script": "OP_0 OP_CODESEPARATOR OP_4",
      "type": 0,
      "hash": "59124a8ebe87e608e53d6278e78c9a5d547db52529d4df67a909e8a48ff61dc1"
    }
  ],
  "hashForWitnessV0": [
    {
      "description": "P2SH P2WKH with SIGHASH_ALL",
      "txHex": "0200000001019f8006baffecf6f67a614b957dea2926e5c3a664dcc76107904e81c51e81d8b4010000001716001477eed0492f963c8b63c5dba38df46c067c4c470effffffff030125b251070e29ca19043cf33ccd7324e2ddab03ecc4ae0b5e77c4fc0e5cf6c95a010000000005f5e100001976a914c82f73abe9d97ebced99c3c95633ec10fc7676de88ac0125b251070e29ca19043cf33ccd7324e2ddab03ecc4ae0b5e77c4fc0e5cf6c95a010000000005f5cad00017a914be03ace8797d9ca591ce47111fe94a328308b1d0870125b251070e29ca19043cf33ccd7324e2ddab03ecc4ae0b5e77c4fc0e5cf6c95a010000000000001630000000000000000002473044022057daca2f62f2d227c98f00d3feb31d010477b9d463d4dd9959b3dfe5ad91fbae022007732d08427cd70c998a70d9b6accf360ef6a758a642f888b409c516a474908f01210318a9d75c7ab17fc69119ed20c0e2d36eb6a54d54a590e98355ed914c7f81242f00000000000000",
      "inIndex": 0,
      "script": "OP_DUP OP_HASH160 77eed0492f963c8b63c5dba38df46c067c4c470e OP_EQUALVERIFY OP_CHECKSIG",
      "hash": "30a66fb46bdd8a823e48b000d792d2383aa4b6a7d467a5531d37fe418411b4ff",
      "type": 1,
      "amount": 200000000
    },
    {
      "description": "P2SH P2WKH with SIGHASH_NONE",
      "txHex": "0200000001019f8006baffecf6f67a614b957dea2926e5c3a664dcc76107904e81c51e81d8b4010000001716001477eed0492f963c8b63c5dba38df46c067c4c470effffffff030125b251070e29ca19043cf33ccd7324e2ddab03ecc4ae0b5e77c4fc0e5cf6c95a010000000005f5e100001976a914c82f73abe9d97ebced99c3c95633ec10fc7676de88ac0125b251070e29ca19043cf33ccd7324e2ddab03ecc4ae0b5e77c4fc0e5cf6c95a010000000005f5cad00017a914be03ace8797d9ca591ce47111fe94a328308b1d0870125b251070e29ca19043cf33ccd7324e2ddab03ecc4ae0b5e77c4fc0e5cf6c95a010000000000001630000000000000000002473044022057daca2f62f2d227c98f00d3feb31d010477b9d463d4dd9959b3dfe5ad91fbae022007732d08427cd70c998a70d9b6accf360ef6a758a642f888b409c516a474908f01210318a9d75c7ab17fc69119ed20c0e2d36eb6a54d54a590e98355ed914c7f81242f00000000000000",
      "inIndex": 0,
      "script": "OP_DUP OP_HASH160 77eed0492f963c8b63c5dba38df46c067c4c470e OP_EQUALVERIFY OP_CHECKSIG",
      "hash": "53f8e203b55bdb2270ebd7070119b79581e4beca047baf15f93edad72689c8ef",
      "type": 2,
      "amount": 200000000
    },
    {
      "description": "P2SH P2WKH with SIGHASH_SINGLE",
      "txHex": "0200000001019f8006baffecf6f67a614b957dea2926e5c3a664dcc76107904e81c51e81d8b4010000001716001477eed0492f963c8b63c5dba38df46c067c4c470effffffff030125b251070e29ca19043cf33ccd7324e2ddab03ecc4ae0b5e77c4fc0e5cf6c95a010000000005f5e100001976a914c82f73abe9d97ebced99c3c95633ec10fc7676de88ac0125b251070e29ca19043cf33ccd7324e2ddab03ecc4ae0b5e77c4fc0e5cf6c95a010000000005f5cad00017a914be03ace8797d9ca591ce47111fe94a328308b1d0870125b251070e29ca19043cf33ccd7324e2ddab03ecc4ae0b5e77c4fc0e5cf6c95a010000000000001630000000000000000002473044022057daca2f62f2d227c98f00d3feb31d010477b9d463d4dd9959b3dfe5ad91fbae022007732d08427cd70c998a70d9b6accf360ef6a758a642f888b409c516a474908f01210318a9d75c7ab17fc69119ed20c0e2d36eb6a54d54a590e98355ed914c7f81242f00000000000000",
      "inIndex": 0,
      "script": "OP_DUP OP_HASH160 77eed0492f963c8b63c5dba38df46c067c4c470e OP_EQUALVERIFY OP_CHECKSIG",
      "hash": "6fbc34a6ec37506a3babf478a522aa72f7d3acd49e277ddc9f94f3c3b99aca74",
      "type": 3,
      "amount": 200000000
    },
    {
      "description": "P2SH P2WKH with SIGHASH_ALL | SIGHASH_ANYONECANPAY",
      "txHex": "0200000001019f8006baffecf6f67a614b957dea2926e5c3a664dcc76107904e81c51e81d8b4010000001716001477eed0492f963c8b63c5dba38df46c067c4c470effffffff030125b251070e29ca19043cf33ccd7324e2ddab03ecc4ae0b5e77c4fc0e5cf6c95a010000000005f5e100001976a914c82f73abe9d97ebced99c3c95633ec10fc7676de88ac0125b251070e29ca19043cf33ccd7324e2ddab03ecc4ae0b5e77c4fc0e5cf6c95a010000000005f5cad00017a914be03ace8797d9ca591ce47111fe94a328308b1d0870125b251070e29ca19043cf33ccd7324e2ddab03ecc4ae0b5e77c4fc0e5cf6c95a010000000000001630000000000000000002473044022057daca2f62f2d227c98f00d3feb31d010477b9d463d4dd9959b3dfe5ad91fbae022007732d08427cd70c998a70d9b6accf360ef6a758a642f888b409c516a474908f01210318a9d75c7ab17fc69119ed20c0e2d36eb6a54d54a590e98355ed914c7f81242f00000000000000",
      "inIndex": 0,
      "script": "OP_DUP OP_HASH160 77eed0492f963c8b63c5dba38df46c067c4c470e OP_EQUALVERIFY OP_CHECKSIG",
      "hash": "8148a515ffacfaec9ed59cfcd19ef99d78d3ae83cecead9f35eab36d5c0f8e15",
      "type": 129,
      "amount": 200000000
    },
    {
      "description": "P2SH P2WKH with SIGHASH_NONE | SIGHASH_ANYONECANPAY",
      "txHex": "0200000001019f8006baffecf6f67a614b957dea2926e5c3a664dcc76107904e81c51e81d8b4010000001716001477eed0492f963c8b63c5dba38df46c067c4c470effffffff030125b251070e29ca19043cf33ccd7324e2ddab03ecc4ae0b5e77c4fc0e5cf6c95a010000000005f5e100001976a914c82f73abe9d97ebced99c3c95633ec10fc7676de88ac0125b251070e29ca19043cf33ccd7324e2ddab03ecc4ae0b5e77c4fc0e5cf6c95a010000000005f5cad00017a914be03ace8797d9ca591ce47111fe94a328308b1d0870125b251070e29ca19043cf33ccd7324e2ddab03ecc4ae0b5e77c4fc0e5cf6c95a010000000000001630000000000000000002473044022057daca2f62f2d227c98f00d3feb31d010477b9d463d4dd9959b3dfe5ad91fbae022007732d08427cd70c998a70d9b6accf360ef6a758a642f888b409c516a474908f01210318a9d75c7ab17fc69119ed20c0e2d36eb6a54d54a590e98355ed914c7f81242f00000000000000",
      "inIndex": 0,
      "script": "OP_DUP OP_HASH160 77eed0492f963c8b63c5dba38df46c067c4c470e OP_EQUALVERIFY OP_CHECKSIG",
      "hash": "a2150946ba3eb129f2e14b730bc240d084830064fe9563746bc9da9c170302ed",
      "type": 130,
      "amount": 200000000
    }
  ],
  "invalid": {
    "addInput": [
      {
        "exception": "Expected property \"0\" of type Buffer\\(Length: 32\\), got Buffer\\(Length: 30\\)",
        "hash": "0aed1366a73b6057ee7800d737bff1bdf8c448e98d86bc0998f2b009816d",
        "index": 0
      },
      {
        "exception": "Expected property \"0\" of type Buffer\\(Length: 32\\), got Buffer\\(Length: 34\\)",
        "hash": "0aed1366a73b6057ee7800d737bff1bdf8c448e98d86bc0998f2b009816da9b0ffff",
        "index": 0
      }
    ],
    "fromBuffer": [
      {
        "exception": "Transaction has unexpected data",
        "hex": "010000000002f1fefefefefefefefefefefefefefefefefefefefefefefefefefefefefefefe000000006b483045022100e661badd8d2cf1af27eb3b82e61b5d3f5d5512084591796ae31487f5b82df948022006df3c2a2cac79f68e4b179f4bbb8185a0bb3c4a2486d4405c59b2ba07a74c2101210279be667ef9dcbbac55a06295ce870b07029bfcdb2dce28d959f2815b16f81798fffffffff2fefefefefefefefefefefefefefefefefefefefefefefefefefefefefefefe0100000083483045022100be54a46a44fb7e6bf4ebf348061d0dace7ddcbb92d4147ce181cf4789c7061f0022068ccab2a89a47fc29bb5074bca99ae846ab446eecf3c3aaeb238a13838783c78012102c6047f9441ed7d6d3045406e95c07cd85c778e4b8cef3ca7abac09b95c709ee517a9147ccb85f0ab2d599bc17246c98babd5a20b1cdc7687ffffffff0250c30000000000001976a914c42e7ef92fdb603af844d064faad95db9bcdfd3d88ace44bd3955e62587468668f367b4702cdcc480454aeedc65c6a3d018e4e61ae3df04902000000000017a9147ccb85f0ab2d599bc17246c98babd5a20b1cdc7687e44bd3955e62587468668f367b4702cdcc480454aeedc65c6a3d018e4e61ae3d00000000ffffffff"
      }
    ]
  }
}